{
  "contractName": "KYC",
  "abi": [
    {
      "inputs": [],
      "payable": false,
      "stateMutability": "nonpayable",
      "type": "constructor"
    },
    {
      "constant": false,
      "inputs": [
        {
          "name": "_userName",
          "type": "string"
        },
        {
          "name": "_customerData",
          "type": "string"
        }
      ],
      "name": "addCustomer",
      "outputs": [],
      "payable": false,
      "stateMutability": "nonpayable",
      "type": "function"
    },
    {
      "constant": true,
      "inputs": [
        {
          "name": "_userName",
          "type": "string"
        }
      ],
      "name": "viewCustomer",
      "outputs": [
        {
          "name": "",
          "type": "string"
        },
        {
          "name": "",
          "type": "string"
        },
        {
          "name": "",
          "type": "address"
        },
        {
          "name": "",
          "type": "uint256"
        },
        {
          "name": "",
          "type": "uint256"
        },
        {
          "name": "",
          "type": "bool"
        }
      ],
      "payable": false,
      "stateMutability": "view",
      "type": "function"
    },
    {
      "constant": false,
      "inputs": [
        {
          "name": "_userName",
          "type": "string"
        },
        {
          "name": "_newcustomerData",
          "type": "string"
        }
      ],
      "name": "modifyCustomer",
      "outputs": [],
      "payable": false,
      "stateMutability": "nonpayable",
      "type": "function"
    },
    {
      "constant": false,
      "inputs": [
        {
          "name": "_userName",
          "type": "string"
        }
      ],
      "name": "addKYCRequest",
      "outputs": [],
      "payable": false,
      "stateMutability": "nonpayable",
      "type": "function"
    },
    {
      "constant": false,
      "inputs": [
        {
          "name": "_userName",
          "type": "string"
        }
      ],
      "name": "removeKYCRequest",
      "outputs": [],
      "payable": false,
      "stateMutability": "nonpayable",
      "type": "function"
    },
    {
      "constant": false,
      "inputs": [
        {
          "name": "_userName",
          "type": "string"
        }
      ],
      "name": "upVote",
      "outputs": [],
      "payable": false,
      "stateMutability": "nonpayable",
      "type": "function"
    },
    {
      "constant": false,
      "inputs": [
        {
          "name": "_userName",
          "type": "string"
        }
      ],
      "name": "downVote",
      "outputs": [],
      "payable": false,
      "stateMutability": "nonpayable",
      "type": "function"
    },
    {
      "constant": true,
      "inputs": [
        {
          "name": "_bankAddress",
          "type": "address"
        }
      ],
      "name": "getBankComplaints",
      "outputs": [
        {
          "name": "",
          "type": "uint256"
        }
      ],
      "payable": false,
      "stateMutability": "view",
      "type": "function"
    },
    {
      "constant": true,
      "inputs": [
        {
          "name": "_bankAddress",
          "type": "address"
        }
      ],
      "name": "viewBankDetails",
      "outputs": [
        {
          "name": "",
          "type": "uint256"
        },
        {
          "name": "",
          "type": "string"
        },
        {
          "name": "",
          "type": "address"
        },
        {
          "name": "",
          "type": "bool"
        }
      ],
      "payable": false,
      "stateMutability": "view",
      "type": "function"
    },
    {
      "constant": false,
      "inputs": [
        {
          "name": "_bankAddress",
          "type": "address"
        }
      ],
      "name": "reportBank",
      "outputs": [],
      "payable": false,
      "stateMutability": "nonpayable",
      "type": "function"
    },
    {
      "constant": false,
      "inputs": [
        {
          "name": "_bankName",
          "type": "string"
        },
        {
          "name": "_bankRegNumber",
          "type": "string"
        },
        {
          "name": "_bankAddress",
          "type": "address"
        }
      ],
      "name": "addBank",
      "outputs": [],
      "payable": false,
      "stateMutability": "nonpayable",
      "type": "function"
    },
    {
      "constant": false,
      "inputs": [
        {
          "name": "_bankAddress",
          "type": "address"
        },
        {
          "name": "_isAllowedToVote",
          "type": "bool"
        }
      ],
      "name": "bankIsAllowedToVote",
      "outputs": [],
      "payable": false,
      "stateMutability": "nonpayable",
      "type": "function"
    },
    {
      "constant": false,
      "inputs": [
        {
          "name": "_bankAddress",
          "type": "address"
        }
      ],
      "name": "removeBank",
      "outputs": [],
      "payable": false,
      "stateMutability": "nonpayable",
      "type": "function"
    },
    {
      "constant": false,
      "inputs": [
        {
          "name": "_userName",
          "type": "string"
        }
      ],
      "name": "setKYCStatus",
      "outputs": [],
      "payable": false,
      "stateMutability": "nonpayable",
      "type": "function"
    }
  ],
  "bytecode": "0x608060405234801561001057600080fd5b50336000806101000a81548173ffffffffffffffffffffffffffffffffffffffff021916908373ffffffffffffffffffffffffffffffffffffffff1602179055506131a3806100606000396000f3fe608060405234801561001057600080fd5b50600436106100ea5760003560e01c806364b29ddd1161008c5780639649650c116100665780639649650c14610a35578063a1d9def214610a79578063a5a4980014610b34578063f72860ca14610b78576100ea565b806364b29ddd1461082857806387c9c580146108e357806388cc8d8d14610933576100ea565b806336e7e436116100c857806336e7e436146104e8578063462ff503146105a357806347f886891461065e5780635ec2a7f2146107d0576100ea565b8063107925bb146100ef5780631e8eba6e146102db5780633190abc014610396575b600080fd5b6101a86004803603602081101561010557600080fd5b810190808035906020019064010000000081111561012257600080fd5b82018360208201111561013457600080fd5b8035906020019184600183028401116401000000008311171561015657600080fd5b91908080601f016020809104026020016040519081016040528093929190818152602001838380828437600081840152601f19601f820116905080830192505050505050509192919290505050610cca565b6040518080602001806020018773ffffffffffffffffffffffffffffffffffffffff1673ffffffffffffffffffffffffffffffffffffffff16815260200186815260200185815260200184151515158152602001838103835289818151815260200191508051906020019080838360005b83811015610234578082015181840152602081019050610219565b50505050905090810190601f1680156102615780820380516001836020036101000a031916815260200191505b50838103825288818151815260200191508051906020019080838360005b8381101561029a57808201518184015260208101905061027f565b50505050905090810190601f1680156102c75780820380516001836020036101000a031916815260200191505b509850505050505050505060405180910390f35b610394600480360360208110156102f157600080fd5b810190808035906020019064010000000081111561030e57600080fd5b82018360208201111561032057600080fd5b8035906020019184600183028401116401000000008311171561034257600080fd5b91908080601f016020809104026020016040519081016040528093929190818152602001838380828437600081840152601f19601f8201169050808301925050505050505091929192905050506111eb565b005b6104e6600480360360408110156103ac57600080fd5b81019080803590602001906401000000008111156103c957600080fd5b8201836020820111156103db57600080fd5b803590602001918460018302840111640100000000831117156103fd57600080fd5b91908080601f016020809104026020016040519081016040528093929190818152602001838380828437600081840152601f19601f8201169050808301925050505050505091929192908035906020019064010000000081111561046057600080fd5b82018360208201111561047257600080fd5b8035906020019184600183028401116401000000008311171561049457600080fd5b91908080601f016020809104026020016040519081016040528093929190818152602001838380828437600081840152601f19601f8201169050808301925050505050505091929192905050506113b3565b005b6105a1600480360360208110156104fe57600080fd5b810190808035906020019064010000000081111561051b57600080fd5b82018360208201111561052d57600080fd5b8035906020019184600183028401116401000000008311171561054f57600080fd5b91908080601f016020809104026020016040519081016040528093929190818152602001838380828437600081840152601f19601f820116905080830192505050505050509192919290505050611675565b005b61065c600480360360208110156105b957600080fd5b81019080803590602001906401000000008111156105d657600080fd5b8201836020820111156105e857600080fd5b8035906020019184600183028401116401000000008311171561060a57600080fd5b91908080601f016020809104026020016040519081016040528093929190818152602001838380828437600081840152601f19601f820116905080830192505050505050509192919290505050611969565b005b6107ce6004803603606081101561067457600080fd5b810190808035906020019064010000000081111561069157600080fd5b8201836020820111156106a357600080fd5b803590602001918460018302840111640100000000831117156106c557600080fd5b91908080601f016020809104026020016040519081016040528093929190818152602001838380828437600081840152601f19601f8201169050808301925050505050505091929192908035906020019064010000000081111561072857600080fd5b82018360208201111561073a57600080fd5b8035906020019184600183028401116401000000008311171561075c57600080fd5b91908080601f016020809104026020016040519081016040528093929190818152602001838380828437600081840152601f19601f820116905080830192505050505050509192919290803573ffffffffffffffffffffffffffffffffffffffff169060200190929190505050611afa565b005b610812600480360360208110156107e657600080fd5b81019080803573ffffffffffffffffffffffffffffffffffffffff169060200190929190505050611e79565b6040518082815260200191505060405180910390f35b6108e16004803603602081101561083e57600080fd5b810190808035906020019064010000000081111561085b57600080fd5b82018360208201111561086d57600080fd5b8035906020019184600183028401116401000000008311171561088f57600080fd5b91908080601f016020809104026020016040519081016040528093929190818152602001838380828437600081840152601f19601f820116905080830192505050505050509192919290505050611fac565b005b610931600480360360408110156108f957600080fd5b81019080803573ffffffffffffffffffffffffffffffffffffffff1690602001909291908035151590602001909291905050506122e5565b005b6109756004803603602081101561094957600080fd5b81019080803573ffffffffffffffffffffffffffffffffffffffff169060200190929190505050612486565b60405180858152602001806020018473ffffffffffffffffffffffffffffffffffffffff1673ffffffffffffffffffffffffffffffffffffffff16815260200183151515158152602001828103825285818151815260200191508051906020019080838360005b838110156109f75780820151818401526020810190506109dc565b50505050905090810190601f168015610a245780820380516001836020036101000a031916815260200191505b509550505050505060405180910390f35b610a7760048036036020811015610a4b57600080fd5b81019080803573ffffffffffffffffffffffffffffffffffffffff169060200190929190505050612758565b005b610b3260048036036020811015610a8f57600080fd5b8101908080359060200190640100000000811115610aac57600080fd5b820183602082011115610abe57600080fd5b80359060200191846001830284011164010000000083111715610ae057600080fd5b91908080601f016020809104026020016040519081016040528093929190818152602001838380828437600081840152601f19601f82011690508083019250505050505050919291929050505061294b565b005b610b7660048036036020811015610b4a57600080fd5b81019080803573ffffffffffffffffffffffffffffffffffffffff169060200190929190505050612adc565b005b610cc860048036036040811015610b8e57600080fd5b8101908080359060200190640100000000811115610bab57600080fd5b820183602082011115610bbd57600080fd5b80359060200191846001830284011164010000000083111715610bdf57600080fd5b91908080601f016020809104026020016040519081016040528093929190818152602001838380828437600081840152601f19601f82011690508083019250505050505050919291929080359060200190640100000000811115610c4257600080fd5b820183602082011115610c5457600080fd5b80359060200191846001830284011164010000000083111715610c7657600080fd5b91908080601f016020809104026020016040519081016040528093929190818152602001838380828437600081840152601f19601f820116905080830192505050505050509192919290505050612d4a565b005b606080600080600080600073ffffffffffffffffffffffffffffffffffffffff166001886040518082805190602001908083835b60208310610d215780518252602082019150602081019050602083039250610cfe565b6001836020036101000a038019825116818451168082178552505050505050905001915050908152602001604051809103902060020160009054906101000a900473ffffffffffffffffffffffffffffffffffffffff1673ffffffffffffffffffffffffffffffffffffffff161415610de5576040517f08c379a00000000000000000000000000000000000000000000000000000000081526004018080602001828103825260278152602001806130f76027913960400191505060405180910390fd5b6001876040518082805190602001908083835b60208310610e1b5780518252602082019150602081019050602083039250610df8565b6001836020036101000a03801982511681845116808217855250505050505090500191505090815260200160405180910390206000016001886040518082805190602001908083835b60208310610e875780518252602082019150602081019050602083039250610e64565b6001836020036101000a03801982511681845116808217855250505050505090500191505090815260200160405180910390206001016001896040518082805190602001908083835b60208310610ef35780518252602082019150602081019050602083039250610ed0565b6001836020036101000a038019825116818451168082178552505050505050905001915050908152602001604051809103902060020160009054906101000a900473ffffffffffffffffffffffffffffffffffffffff1660018a6040518082805190602001908083835b60208310610f805780518252602082019150602081019050602083039250610f5d565b6001836020036101000a03801982511681845116808217855250505050505090500191505090815260200160405180910390206004015460018b6040518082805190602001908083835b60208310610fed5780518252602082019150602081019050602083039250610fca565b6001836020036101000a03801982511681845116808217855250505050505090500191505090815260200160405180910390206003015460018c6040518082805190602001908083835b6020831061105a5780518252602082019150602081019050602083039250611037565b6001836020036101000a038019825116818451168082178552505050505050905001915050908152602001604051809103902060020160149054906101000a900460ff16858054600181600116156101000203166002900480601f0160208091040260200160405190810160405280929190818152602001828054600181600116156101000203166002900480156111335780601f1061110857610100808354040283529160200191611133565b820191906000526020600020905b81548152906001019060200180831161111657829003601f168201915b50505050509550848054600181600116156101000203166002900480601f0160208091040260200160405190810160405280929190818152602001828054600181600116156101000203166002900480156111cf5780601f106111a4576101008083540402835291602001916111cf565b820191906000526020600020905b8154815290600101906020018083116111b257829003601f168201915b5050505050945095509550955095509550955091939550919395565b600073ffffffffffffffffffffffffffffffffffffffff166003826040518082805190602001908083835b602083106112395780518252602082019150602081019050602083039250611216565b6001836020036101000a038019825116818451168082178552505050505050905001915050908152602001604051809103902060020160009054906101000a900473ffffffffffffffffffffffffffffffffffffffff1673ffffffffffffffffffffffffffffffffffffffff1614156112fd576040517f08c379a00000000000000000000000000000000000000000000000000000000081526004018080602001828103825260268152602001806130aa6026913960400191505060405180910390fd5b6003816040518082805190602001908083835b602083106113335780518252602082019150602081019050602083039250611310565b6001836020036101000a0380198251168184511680821785525050505050509050019150509081526020016040518091039020600080820160006113779190612ee1565b6001820160006113879190612ee1565b6002820160006101000a81549073ffffffffffffffffffffffffffffffffffffffff0219169055505050565b600073ffffffffffffffffffffffffffffffffffffffff166001836040518082805190602001908083835b6020831061140157805182526020820191506020810190506020830392506113de565b6001836020036101000a038019825116818451168082178552505050505050905001915050908152602001604051809103902060020160009054906101000a900473ffffffffffffffffffffffffffffffffffffffff1673ffffffffffffffffffffffffffffffffffffffff16146114c4576040517f08c379a000000000000000000000000000000000000000000000000000000000815260040180806020018281038252605181526020018061311e6051913960600191505060405180910390fd5b816001836040518082805190602001908083835b602083106114fb57805182526020820191506020810190506020830392506114d8565b6001836020036101000a03801982511681845116808217855250505050505090500191505090815260200160405180910390206000019080519060200190611544929190612f29565b50806001836040518082805190602001908083835b6020831061157c5780518252602082019150602081019050602083039250611559565b6001836020036101000a038019825116818451168082178552505050505050905001915050908152602001604051809103902060010190805190602001906115c5929190612f29565b50336001836040518082805190602001908083835b602083106115fd57805182526020820191506020810190506020830392506115da565b6001836020036101000a038019825116818451168082178552505050505050905001915050908152602001604051809103902060020160006101000a81548173ffffffffffffffffffffffffffffffffffffffff021916908373ffffffffffffffffffffffffffffffffffffffff1602179055505050565b600560048054905010156116f1576040517f08c379a000000000000000000000000000000000000000000000000000000000815260040180806020018281038252601e8152602001807f6e756d626572206f662062616e6b73206973206c657373207468616e2035000081525060200191505060405180910390fd5b6001816040518082805190602001908083835b602083106117275780518252602082019150602081019050602083039250611704565b6001836020036101000a0380198251168184511680821785525050505050509050019150509081526020016040518091039020600301546001826040518082805190602001908083835b602083106117945780518252602082019150602081019050602083039250611771565b6001836020036101000a03801982511681845116808217855250505050505090500191505090815260200160405180910390206004015411801561185257506003600480549050816117e257fe5b046001826040518082805190602001908083835b6020831061181957805182526020820191506020810190506020830392506117f6565b6001836020036101000a038019825116818451168082178552505050505050905001915050908152602001604051809103902060030154105b156118e057600180826040518082805190602001908083835b6020831061188e578051825260208201915060208101905060208303925061186b565b6001836020036101000a038019825116818451168082178552505050505050905001915050908152602001604051809103902060020160146101000a81548160ff021916908315150217905550611966565b60006001826040518082805190602001908083835b6020831061191857805182526020820191506020810190506020830392506118f5565b6001836020036101000a038019825116818451168082178552505050505050905001915050908152602001604051809103902060020160146101000a81548160ff0219169083151502179055505b50565b600073ffffffffffffffffffffffffffffffffffffffff166001826040518082805190602001908083835b602083106119b75780518252602082019150602081019050602083039250611994565b6001836020036101000a038019825116818451168082178552505050505050905001915050908152602001604051809103902060020160009054906101000a900473ffffffffffffffffffffffffffffffffffffffff1673ffffffffffffffffffffffffffffffffffffffff161415611a7b576040517f08c379a00000000000000000000000000000000000000000000000000000000081526004018080602001828103825260278152602001806130f76027913960400191505060405180910390fd5b6001816040518082805190602001908083835b60208310611ab15780518252602082019150602081019050602083039250611a8e565b6001836020036101000a03801982511681845116808217855250505050505090500191505090815260200160405180910390206003016000815480929190600101919050555050565b6000809054906101000a900473ffffffffffffffffffffffffffffffffffffffff168073ffffffffffffffffffffffffffffffffffffffff163373ffffffffffffffffffffffffffffffffffffffff1614611b5457600080fd5b600073ffffffffffffffffffffffffffffffffffffffff16600260008473ffffffffffffffffffffffffffffffffffffffff1673ffffffffffffffffffffffffffffffffffffffff16815260200190815260200160002060010160009054906101000a900473ffffffffffffffffffffffffffffffffffffffff1673ffffffffffffffffffffffffffffffffffffffff1614611c3b576040517f08c379a00000000000000000000000000000000000000000000000000000000081526004018080602001828103825260268152602001806130566026913960400191505060405180910390fd5b83600260008473ffffffffffffffffffffffffffffffffffffffff1673ffffffffffffffffffffffffffffffffffffffff1681526020019081526020016000206000019080519060200190611c91929190612f29565b5081600260008473ffffffffffffffffffffffffffffffffffffffff1673ffffffffffffffffffffffffffffffffffffffff16815260200190815260200160002060010160006101000a81548173ffffffffffffffffffffffffffffffffffffffff021916908373ffffffffffffffffffffffffffffffffffffffff16021790555082600260008473ffffffffffffffffffffffffffffffffffffffff1673ffffffffffffffffffffffffffffffffffffffff1681526020019081526020016000206005019080519060200190611d69929190612f29565b506000600260008473ffffffffffffffffffffffffffffffffffffffff1673ffffffffffffffffffffffffffffffffffffffff168152602001908152602001600020600201819055506001600260008473ffffffffffffffffffffffffffffffffffffffff1673ffffffffffffffffffffffffffffffffffffffff16815260200190815260200160002060040160006101000a81548160ff02191690831515021790555060048290806001815401808255809150509060018203906000526020600020016000909192909190916101000a81548173ffffffffffffffffffffffffffffffffffffffff021916908373ffffffffffffffffffffffffffffffffffffffff1602179055505050505050565b60008073ffffffffffffffffffffffffffffffffffffffff16600260008473ffffffffffffffffffffffffffffffffffffffff1673ffffffffffffffffffffffffffffffffffffffff16815260200190815260200160002060010160009054906101000a900473ffffffffffffffffffffffffffffffffffffffff1673ffffffffffffffffffffffffffffffffffffffff161415611f62576040517f08c379a00000000000000000000000000000000000000000000000000000000081526004018080602001828103825260278152602001806130d06027913960400191505060405180910390fd5b600260008373ffffffffffffffffffffffffffffffffffffffff1673ffffffffffffffffffffffffffffffffffffffff168152602001908152602001600020600201549050919050565b600073ffffffffffffffffffffffffffffffffffffffff166001826040518082805190602001908083835b60208310611ffa5780518252602082019150602081019050602083039250611fd7565b6001836020036101000a038019825116818451168082178552505050505050905001915050908152602001604051809103902060020160009054906101000a900473ffffffffffffffffffffffffffffffffffffffff1673ffffffffffffffffffffffffffffffffffffffff1614156120be576040517f08c379a000000000000000000000000000000000000000000000000000000000815260040180806020018281038252602e81526020018061307c602e913960400191505060405180910390fd5b806003826040518082805190602001908083835b602083106120f557805182526020820191506020810190506020830392506120d2565b6001836020036101000a0380198251168184511680821785525050505050509050019150509081526020016040518091039020600001908051906020019061213e929190612f29565b506001816040518082805190602001908083835b602083106121755780518252602082019150602081019050602083039250612152565b6001836020036101000a03801982511681845116808217855250505050505090500191505090815260200160405180910390206001016003826040518082805190602001908083835b602083106121e157805182526020820191506020810190506020830392506121be565b6001836020036101000a03801982511681845116808217855250505050505090500191505090815260200160405180910390206001019080546001816001161561010002031660029004612236929190612fa9565b50336003826040518082805190602001908083835b6020831061226e578051825260208201915060208101905060208303925061224b565b6001836020036101000a038019825116818451168082178552505050505050905001915050908152602001604051809103902060020160006101000a81548173ffffffffffffffffffffffffffffffffffffffff021916908373ffffffffffffffffffffffffffffffffffffffff16021790555050565b6000809054906101000a900473ffffffffffffffffffffffffffffffffffffffff168073ffffffffffffffffffffffffffffffffffffffff163373ffffffffffffffffffffffffffffffffffffffff161461233f57600080fd5b600073ffffffffffffffffffffffffffffffffffffffff16600260008573ffffffffffffffffffffffffffffffffffffffff1673ffffffffffffffffffffffffffffffffffffffff16815260200190815260200160002060010160009054906101000a900473ffffffffffffffffffffffffffffffffffffffff1673ffffffffffffffffffffffffffffffffffffffff161415612427576040517f08c379a00000000000000000000000000000000000000000000000000000000081526004018080602001828103825260278152602001806130d06027913960400191505060405180910390fd5b81600260008573ffffffffffffffffffffffffffffffffffffffff1673ffffffffffffffffffffffffffffffffffffffff16815260200190815260200160002060040160006101000a81548160ff021916908315150217905550505050565b60006060600080600073ffffffffffffffffffffffffffffffffffffffff16600260008773ffffffffffffffffffffffffffffffffffffffff1673ffffffffffffffffffffffffffffffffffffffff16815260200190815260200160002060010160009054906101000a900473ffffffffffffffffffffffffffffffffffffffff1673ffffffffffffffffffffffffffffffffffffffff161415612575576040517f08c379a00000000000000000000000000000000000000000000000000000000081526004018080602001828103825260278152602001806130d06027913960400191505060405180910390fd5b600260008673ffffffffffffffffffffffffffffffffffffffff1673ffffffffffffffffffffffffffffffffffffffff16815260200190815260200160002060020154600260008773ffffffffffffffffffffffffffffffffffffffff1673ffffffffffffffffffffffffffffffffffffffff168152602001908152602001600020600001600260008873ffffffffffffffffffffffffffffffffffffffff1673ffffffffffffffffffffffffffffffffffffffff16815260200190815260200160002060010160009054906101000a900473ffffffffffffffffffffffffffffffffffffffff16600260008973ffffffffffffffffffffffffffffffffffffffff1673ffffffffffffffffffffffffffffffffffffffff16815260200190815260200160002060040160009054906101000a900460ff16828054600181600116156101000203166002900480601f0160208091040260200160405190810160405280929190818152602001828054600181600116156101000203166002900480156127425780601f1061271757610100808354040283529160200191612742565b820191906000526020600020905b81548152906001019060200180831161272557829003601f168201915b5050505050925093509350935093509193509193565b6000809054906101000a900473ffffffffffffffffffffffffffffffffffffffff168073ffffffffffffffffffffffffffffffffffffffff163373ffffffffffffffffffffffffffffffffffffffff16146127b257600080fd5b600073ffffffffffffffffffffffffffffffffffffffff16600260008473ffffffffffffffffffffffffffffffffffffffff1673ffffffffffffffffffffffffffffffffffffffff16815260200190815260200160002060010160009054906101000a900473ffffffffffffffffffffffffffffffffffffffff1673ffffffffffffffffffffffffffffffffffffffff16141561289a576040517f08c379a00000000000000000000000000000000000000000000000000000000081526004018080602001828103825260278152602001806130d06027913960400191505060405180910390fd5b600260008373ffffffffffffffffffffffffffffffffffffffff1673ffffffffffffffffffffffffffffffffffffffff168152602001908152602001600020600080820160006128ea9190612ee1565b6001820160006101000a81549073ffffffffffffffffffffffffffffffffffffffff0219169055600282016000905560038201600090556004820160006101000a81549060ff02191690556005820160006129459190612ee1565b50505050565b600073ffffffffffffffffffffffffffffffffffffffff166001826040518082805190602001908083835b602083106129995780518252602082019150602081019050602083039250612976565b6001836020036101000a038019825116818451168082178552505050505050905001915050908152602001604051809103902060020160009054906101000a900473ffffffffffffffffffffffffffffffffffffffff1673ffffffffffffffffffffffffffffffffffffffff161415612a5d576040517f08c379a00000000000000000000000000000000000000000000000000000000081526004018080602001828103825260278152602001806130f76027913960400191505060405180910390fd5b6001816040518082805190602001908083835b60208310612a935780518252602082019150602081019050602083039250612a70565b6001836020036101000a03801982511681845116808217855250505050505090500191505090815260200160405180910390206004016000815480929190600101919050555050565b600073ffffffffffffffffffffffffffffffffffffffff16600260008373ffffffffffffffffffffffffffffffffffffffff1673ffffffffffffffffffffffffffffffffffffffff16815260200190815260200160002060010160009054906101000a900473ffffffffffffffffffffffffffffffffffffffff1673ffffffffffffffffffffffffffffffffffffffff161415612bc4576040517f08c379a00000000000000000000000000000000000000000000000000000000081526004018080602001828103825260278152602001806130d06027913960400191505060405180910390fd5b60056004805490501015612c40576040517f08c379a000000000000000000000000000000000000000000000000000000000815260040180806020018281038252601e8152602001807f6e756d626572206f662062616e6b73206973206c657373207468616e2035000081525060200191505060405180910390fd5b600260008273ffffffffffffffffffffffffffffffffffffffff1673ffffffffffffffffffffffffffffffffffffffff16815260200190815260200160002060020160008154809291906001019190505550600360048054905081612ca157fe5b04600260008373ffffffffffffffffffffffffffffffffffffffff1673ffffffffffffffffffffffffffffffffffffffff168152602001908152602001600020600201541115612d47576000600260008373ffffffffffffffffffffffffffffffffffffffff1673ffffffffffffffffffffffffffffffffffffffff16815260200190815260200160002060040160006101000a81548160ff0219169083151502179055505b50565b600073ffffffffffffffffffffffffffffffffffffffff166001836040518082805190602001908083835b60208310612d985780518252602082019150602081019050602083039250612d75565b6001836020036101000a038019825116818451168082178552505050505050905001915050908152602001604051809103902060020160009054906101000a900473ffffffffffffffffffffffffffffffffffffffff1673ffffffffffffffffffffffffffffffffffffffff161415612e5c576040517f08c379a00000000000000000000000000000000000000000000000000000000081526004018080602001828103825260278152602001806130f76027913960400191505060405180910390fd5b806001836040518082805190602001908083835b60208310612e935780518252602082019150602081019050602083039250612e70565b6001836020036101000a03801982511681845116808217855250505050505090500191505090815260200160405180910390206001019080519060200190612edc929190612f29565b505050565b50805460018160011615610100020316600290046000825580601f10612f075750612f26565b601f016020900490600052602060002090810190612f259190613030565b5b50565b828054600181600116156101000203166002900490600052602060002090601f016020900481019282601f10612f6a57805160ff1916838001178555612f98565b82800160010185558215612f98579182015b82811115612f97578251825591602001919060010190612f7c565b5b509050612fa59190613030565b5090565b828054600181600116156101000203166002900490600052602060002090601f016020900481019282601f10612fe2578054855561301f565b8280016001018555821561301f57600052602060002091601f016020900482015b8281111561301e578254825591600101919060010190613003565b5b50905061302c9190613030565b5090565b61305291905b8082111561304e576000816000905550600101613036565b5090565b9056fe546865726520697320612062616e6b207769746820746869732062616e6b2061646472657373437573746f6d6572206973206e6f7420616464656420696e207468652062616e6b206461746162617365207965745468657265206973206e6f204b5943207265717565737420776974682074686973206e616d655468657265206973206e6f2062616e6b207769746820746869732062616e6b2061646472657373437573746f6d6572206973206e6f742070726573656e7420696e20746865206461746162617365437573746f6d657220697320616c72656164792070726573656e742c20706c656173652063616c6c206d6f64696679437573746f6d657220746f20656469742074686520637573746f6d65722064617461a265627a7a723058206bf91ebaee67a12eb97830ca858f27356f48a09a5d79d22414b876034762724e64736f6c63430005090032",
  "source": "//SPDX-License-Identifier: MIT\npragma solidity ^0.5.9;\n\ncontract KYC{\n    \n    address Admin;\n\n    constructor() public {\n        Admin = msg.sender;\n    }\n    struct Customer {\n        string userName;   \n        string data;  \n        address bank;\n        bool kycStatus;\n        uint256 Downvotes;\n        uint256 Upvotes;\n    }\n    \n    struct Bank {\n        string name;\n        address ethAddress;\n        uint256 complaintsReported;\n        uint256 KYC_count;\n        bool isAllowedToVote;\n        string regNumber;\n    }\n\n    struct KYCRequest {\n        string userName;   \n        string data;  \n        address bank;\n    }\n\n    mapping(string => Customer) customers;\n\n    mapping(address => Bank) banks;\n\n    mapping(string => KYCRequest) kycrequests;\n\n    address[] allBanks;\n   \n    modifier isAdmin(address _admin) {\n        require(msg.sender == _admin);\n        _;\n    }\n    \n    function addCustomer(string memory _userName, string memory _customerData) public {\n        require(customers[_userName].bank == address(0), \"Customer is already present, please call modifyCustomer to edit the customer data\");\n        customers[_userName].userName = _userName;\n        customers[_userName].data = _customerData;\n        customers[_userName].bank = msg.sender;\n    }\n\n    function viewCustomer(string memory _userName) public view returns (string memory, string memory, address, uint256, uint256, bool) {\n        require(customers[_userName].bank != address(0), \"Customer is not present in the database\");\n        return (customers[_userName].userName, customers[_userName].data, customers[_userName].bank, customers[_userName].Upvotes, customers[_userName].Downvotes, customers[_userName].kycStatus);\n    }\n    \n    function modifyCustomer(string memory _userName, string memory _newcustomerData) public {\n        require(customers[_userName].bank != address(0), \"Customer is not present in the database\");\n        customers[_userName].data = _newcustomerData;\n    }  \n\n    function addKYCRequest(string memory _userName) public {\n         require(customers[_userName].bank != address(0), \"Customer is not added in the bank database yet\");\n         kycrequests[_userName].userName = _userName;\n         kycrequests[_userName].data = customers[_userName].data;\n         kycrequests[_userName].bank = msg.sender;\n    } \n    \n    function removeKYCRequest(string memory _userName) public {\n        require(kycrequests[_userName].bank != address(0), \"There is no KYC request with this name\");\n         delete kycrequests[_userName];\n    }\n    \n    function upVote(string memory _userName) public {\n        require(customers[_userName].bank != address(0), \"Customer is not present in the database\");\n        customers[_userName].Upvotes++;\n    }\n\n    function downVote(string memory _userName) public {\n        require(customers[_userName].bank != address(0), \"Customer is not present in the database\");\n        customers[_userName].Downvotes++;\n    }\n    \n    function getBankComplaints(address _bankAddress) public view returns(uint256){\n       require(banks[_bankAddress].ethAddress != address(0), \"There is no bank with this bank address\");\n       return (banks[_bankAddress].complaintsReported);\n    }\n\n    function viewBankDetails(address _bankAddress) public view returns (uint256, string memory, address, bool) {\n      require(banks[_bankAddress].ethAddress != address(0), \"There is no bank with this bank address\");\n      return (banks[_bankAddress].complaintsReported, banks[_bankAddress].name, banks[_bankAddress].ethAddress, banks[_bankAddress].isAllowedToVote);\n\n    }  \n\n    function reportBank(address _bankAddress) public {\n        require(banks[_bankAddress].ethAddress != address(0), \"There is no bank with this bank address\");\n        require(allBanks.length >= 5, \"number of banks is less than 5\");\n        banks[_bankAddress].complaintsReported++;\n        if(banks[_bankAddress].complaintsReported >  allBanks.length/3) {\n         banks[_bankAddress].isAllowedToVote = false;\n        }\n        \n    } \n\n    function addBank(string memory _bankName, string memory _bankRegNumber, address _bankAddress) public isAdmin(Admin){\n        require(banks[_bankAddress].ethAddress == address(0), \"There is a bank with this bank address\");\n        banks[_bankAddress].name = _bankName;\n        banks[_bankAddress].ethAddress = _bankAddress;\n        banks[_bankAddress].regNumber = _bankRegNumber;\n        banks[_bankAddress].complaintsReported = 0;\n        banks[_bankAddress].isAllowedToVote = true;\n        allBanks.push(_bankAddress);\n    }\n    \n    function bankIsAllowedToVote(address _bankAddress, bool _isAllowedToVote) public isAdmin(Admin) {\n        require(banks[_bankAddress].ethAddress != address(0), \"There is no bank with this bank address\");\n        banks[_bankAddress].isAllowedToVote = _isAllowedToVote;\n    }\n\n    function removeBank(address _bankAddress) public isAdmin(Admin) {\n        require(banks[_bankAddress].ethAddress != address(0), \"There is no bank with this bank address\");\n        delete banks[_bankAddress];\n    }\n\n    function setKYCStatus(string memory _userName) public {\n        require(allBanks.length >= 5, \"number of banks is less than 5\");\n        if(customers[_userName].Upvotes > customers[_userName].Downvotes && customers[_userName].Downvotes < allBanks.length/3) {\n          customers[_userName].kycStatus = true;\n        } else customers[_userName].kycStatus = false;\n    }\n\n}\n\n",
  "sourcePath": "/Users/thomasyirgetu/Desktop/MyDocuments/upGrad/Project/contracts/KYC.sol",
  "compiler": {
    "name": "solc",
    "version": "0.5.9+commit.e560f70d.Emscripten.clang"
  },
  "schemaVersion": "3.2.3",
  "updatedAt": "2023-01-20T13:37:53.041Z",
  "networkType": "ethereum",
  "devdoc": {
    "methods": {}
  },
  "userdoc": {
    "methods": {}
  }
}